:100000000C9446000C9465000C9465000C946500FB
:100010000C9465000C9465000C9465000C946500CC
:100020000C9465000C9465000C9465000C946500BC
:100030000C9465000C9465000C9465000C946500AC
:100040000C9465000C9465000C9465000C9465009C
:100050000C9465000C9465000C9465000C9465008C
:100060000C9465000C9465000C9465000C9465007C
:100070000C9465000C9465000C9465000C9465006C
:100080000C9465000C9465000C94650011241FBE4F
:10009000CFEFD0E4DEBFCDBF11E0A0E0B1E0ECEAED
:1000A000F6E000E00BBF02C007900D92AE32B10740
:1000B000D9F711E0AEE2B1E001C01D92A933B1075A
:1000C000E1F70E94C3010C9454030C940000CF93F9
:1000D000C82F8A3019F48DE00E9467009091C0000B
:1000E00095FFFCCFC093C60080E090E0CF910895CB
:1000F000CF92DF92EF92FF926B017C0120912E0153
:1001000030912F0140913001509131010E94DB016B
:10011000882309F458C020E030E0A901C701B601E6
:100120000E94DB01811106C0E1E9F0E08081887066
:10013000808305C0E1E9F0E080818360808328E569
:1001400039E344E75FE3C701B6010E94DB0188237E
:100150003CF48FEF9FEF909399008093980027C015
:1001600020E034E244EF56E4C701B6010E94ED02FC
:1001700018162CF4109299001092980018C020E0E4
:1001800030E040E053E4C701B6010E94F1029B0158
:10019000AC0160E074E284EF9AE40E94DF010E9407
:1001A0004702615071097093990060939800109212
:1001B000950010929400C0922E01D0922F01E092EF
:1001C0003001F0923101FF90EF90DF90CF900895D1
:1001D00080E4809390008BE08093910060E070E079
:1001E000CB010E9478000895109290001092910027
:1001F0000895809132019091330182309105A9F0E8
:1002000030F4009759F08130910551F132C08330BC
:100210009105A1F084309105D1F02BC082E090E0EF
:10022000909333018093320128C0009902C083E08B
:1002300090E090933301809332011FC0009B02C075
:1002400084E090E0909333018093320116C00099CE
:1002500002C081E090E090933301809332010DC0A1
:10026000009B02C082E090E09093330180933201C2
:1002700004C01092330110923201809132019091AA
:10028000330182309105C1F030F4009751F00197AD
:1002900009F459C063C083309105C9F0049711F186
:1002A0005DC0109235011092360110923701109204
:1002B0003801109234015CC0109235011092360161
:1002C00010923701109238011092340151C01092EF
:1002D00035011092360110923701109238011092B8
:1002E000340146C0009B0CC001990AC0029B08C0A3
:1002F00080913401873020F48F5F809334010DC0EA
:10030000009B0BC0019B09C0029907C0809134017A
:10031000882319F0815080933401E0913401F0E09A
:10032000EE0FFF1FEE0FFF1FE050FF4F8081918106
:10033000A281B3818093350190933601A093370158
:10034000B093380115C01092350110923601109209
:10035000370110923801109234010AC01092350111
:100360001092360110923701109238011092340128
:10037000609135017091360180913701909138017B
:100380000E947800089511B88FEF82B984B915B82A
:100390000E94E80010923301109232011092350150
:1003A00010923601109237011092380110923401E8
:1003B0000E94F900FDCF9CD008F481E008950CD094
:1003C000D2C0CAD040F0C1D030F021F45F3F19F064
:1003D000B3C05111FCC0B6C0D7D098F39923C9F36C
:1003E0005523B1F3951B550BBB27AA27621773073B
:1003F000840738F09F5F5F4F220F331F441FAA1FEF
:10040000A9F333D00E2E3AF0E0E830D091505040AE
:10041000E695001CCAF729D0FE2F27D0660F771F5C
:10042000881FBB1F261737074807AB07B0E809F03E
:10043000BB0B802DBF01FF2793585F4F2AF09E3FD3
:10044000510568F079C0C3C05F3FECF3983EDCF320
:10045000869577956795B795F7959F5FC9F7880F4C
:10046000911D9695879597F90895E1E0660F771F9E
:10047000881FBB1F621773078407BA0720F0621B2F
:10048000730B840BBA0BEE1F88F7E095089504D028
:100490006894B1119CC008957FD088F09F5790F068
:1004A000B92F9927B751A0F0D1F0660F771F881F99
:1004B000991F1AF0BA95C9F712C0B13081F086D0F1
:1004C000B1E0089583C0672F782F8827B85F39F08F
:1004D000B93FCCF3869577956795B395D9F73EF4F8
:1004E00090958095709561957F4F8F4F9F4F0895A0
:1004F000990F0008550FAA0BE0E8FEEF1616170635
:10050000E807F907C0F012161306E407F50798F09C
:10051000621B730B840B950B39F40A2661F0232BB5
:10052000242B252B21F408950A2609F4A140A69531
:100530008FEF811D811D089597F99F6780E870E016
:1005400060E008959FEF80EC089500240A94161649
:10055000170618060906089500240A9412161306B1
:10056000140605060895092E0394000C11F488233F
:1005700052F0BB0F40F4BF2B11F460FF04C06F5F5B
:100580007F4F8F4F9F4F089557FD9058440F551F31
:1005900059F05F3F71F04795880F97FB991F61F005
:1005A0009F3F79F087950895121613061406551F7C
:1005B000F2CF4695F1DF08C0161617061806991FE8
:1005C000F1CF86957105610508940895E894BB27DD
:1005D00066277727CB0197F908958ADF08F48FEF14
:1005E00008950BD0C0CFB1DF28F0B6DF18F0952307
:1005F00009F0A2CFA7CF1124EACFC6DFA0F3959FC1
:10060000D1F3950F50E0551F629FF001729FBB27F9
:10061000F00DB11D639FAA27F00DB11DAA1F649FA5
:100620006627B00DA11D661F829F2227B00DA11D58
:10063000621F739FB00DA11D621F839FA00D611DDE
:10064000221F749F3327A00D611D231F849F600DFF
:10065000211D822F762F6A2F11249F5750408AF038
:10066000E1F088234AF0EE0FFF1FBB1F661F771FC4
:10067000881F91505040A9F79E3F510570F05CCF04
:10068000A6CF5F3FECF3983EDCF3869577956795B0
:10069000B795F795E7959F5FC1F7FE2B880F911DE2
:0C06A0009695879597F90895F894FFCF80
:1006AC00A4D082437BD49243A4D0A443719DAE4387
:1006BC000000C4430000DC43A4F0F64300D0024425
:0E06CC000000000200000000670000000000B7
:00000001FF
